:020000040000FA
:1000000080A000202D2A000009940000192A000079
:10001000192A0000192A0000192A0000192A0000D4
:10002000000000000000000000000000FD2A0000A9
:10003000192A0000000000004D2D0000192A0000C0
:10004000092E0000092E0000092E0000092E0000D4
:10005000092E0000092E0000092E0000092E0000C4
:10006000092E0000092E0000092E0000092E0000B4
:10007000092E0000092E0000092E0000092E0000A4
:10047000092E0000092E0000092E000080F0004027
:1004800002E000BF81F0004142001FBF5FEA41036C
:1004900092EA030F7FEA226C7FEA236C6AD04FEA6C
:1004A0001262D2EB1363C1BFD218414048404140B1
:1004B000B8BF5B42192B88BF704710F0004F40F463
:1004C000000020F07F4018BF404211F0004F41F47F
:1004D000000121F07F4118BF494292EA030F3FD04B
:1004E000A2F1010241FA03FC10EB0C00C3F120035E
:1004F00001FA03F100F0004302D5494260EB4000ED
:10050000B0F5000F13D3B0F1807F06D340084FEA57
:10051000310102F10102FE2A51D2B1F1004F40EB4C
:10052000C25008BF20F0010040EA030070474900B4
:1005300040EB0000013A28BFB0F5000FEDD2B0FA51
:1005400080FCACF1080CB2EB0C0200FA0CF0AABF74
:1005500000EBC25052421843BCBFD0401843704712
:1005600092F0000F81F4000106BF80F40000013218
:10057000013BB5E74FEA41037FEA226C18BF7FEAEF
:10058000236C21D092EA030F04D092F0000F08BF31
:100590000846704790EA010F1CBF0020704712F018
:1005A0007F4F04D1400028BF40F00040704712F157
:1005B00000723CBF00F50000704700F0004343F0BC
:1005C000FE4040F4000070477FEA226216BF0846F2
:1005D0007FEA23630146420206BF5FEA412390EAB5
:1005E000010F40F4800070474FF0000304E000BFAB
:1005F00010F0004348BF40425FEA000C08BF70475C
:1006000043F0964301464FF000001CE050EA01021F
:1006100008BF70474FF000030AE000BF50EA010234
:1006200008BF704711F0004302D5404261EB410121
:100630005FEA010C02BF84460146002043F0B64346
:1006400008BFA3F18053A3F50003BCFA8CF2083A6B
:10065000A3EBC25310DB01FA02FC634400FA02FC74
:10066000C2F12002BCF1004F20FA02F243EB02007B
:1006700008BF20F00100704702F1200201FA02FCDD
:10068000C2F1200250EA4C0021FA02F243EB0200D0
:1006900008BF20EADC70704753B94AB9002908BF87
:1006A00000281CBF4FF0FF314FF0FF3000F00CB8B6
:1006B000ADF1080C6DE904CE00F010F8DDF804E0AF
:1006C000DDE9022304B07047704700BF034613F80A
:1006D000012B002AFBD1181A013870472DE9F04789
:1006E0008C468E46089E154604461946002B40F05F
:1006F000D080724547D9B2FA82F74FB1C7F12003D3
:100700000EFA07FCBD40BC4020FA03F343EA0C0C90
:100710004FEA154EA8B2230CBCFBFEF80EFB18CC1A
:1007200008FB00F943EA0C43994528D9EB1808F176
:10073000FF3204D2994502D9A8F102022B44A3EB5F
:100740000903A4B2B3FBFEFC0EFB1C330CFB00F050
:1007500044EA0344A04214D92C190CF1FF3304D20B
:10076000A04202D9ACF102032C44241A43EA02400D
:100770001EB1FC40002334607360BDE8F087424640
:10078000DDE76346F1E7002A79D0B2FA82F3002B65
:100790003FD01946C1F1200302FA01F500FA01F435
:1007A0002EFA03F20EFA01FE20FA03F3AFB243EA87
:1007B0000E034FEA154EB2FBFEFC0EFB1C201A0C7A
:1007C0000CFB07F842EA004290455AD9AA180CF1EE
:1007D000FF3004D2904502D9ACF102002A44A2EBCA
:1007E00008029BB2B2FBFEFC0EFB1C220CFB07F7BF
:1007F00043EA02439F4246D9EB180CF1FF3204D280
:100800009F4202D9ACF102022B44DB1B42EA0042B8
:1008100002E0AEEB020301224FEA154EAFB2200C0C
:10082000B3FBFEFC0EFB1C330CFB07F840EA034352
:1008300098452AD9EB180CF1FF3004D2984502D91B
:10084000ACF102002B44A3EB0803A4B2B3FBFEFC03
:100850000EFB1C330CFB07F744EA0344A74216D9EE
:100860002C190CF1FF3304D2A74202D9ACF10203D8
:100870002C44E41B43EA00400F46114678E71F2151
:1008800088E76046ABE76246BFE76046DBE7634662
:10089000EFE7734506D916B9002108466DE7C6E9AA
:1008A000000EF9E7B3FA83F787B9734501D38242A3
:1008B00007D8841A6EEB030301209C461EB9002161
:1008C0005BE73846FAE7C6E9004CF8E7C7F1200CC9
:1008D000BB4000FA07F422FA0CF520FA0CF1BA40FA
:1008E0001D432EFA0CF30EFA07FE4FEA154941EAB2
:1008F0000E011FFA85FEB3FBF9F809FB18300B0C4B
:1009000008FB0EFA43EA00439A4540D9EB1808F178
:10091000FF3004D29A4502D9A8F102002B44A3EB80
:100920000A0389B2B3FBF9F809FB183308FB0EFE82
:1009300041EA03418E452CD9691808F1FF3304D2EE
:100940008E4502D9A8F10203294443EA0040A1EBF5
:100950000E01A0FB02984145CE46434602D306D184
:100960004C4504D20138B9EB020E68EB0503002EAA
:10097000A5D0B4EB0E0261EB030101FA0CFC22FAE4
:1009800007F3F9404CEA0303C6E9003197E7404614
:10099000C5E74346D9E700002DE9F341054641F696
:1009A000F07714461E46403BA7EB9307EB88194AA5
:1009B00001330846B2FBF3F234BBB2FBF1F303F1AF
:1009C0000F0424F00F034FF48058134C0A210194B4
:1009D000CDF8008007F08FFE98B9CDF80080642133
:1009E00020460E4B2A8900F0BFF9002809DB00974A
:1009F00006F1005301462A89084803F5603307F0E1
:100A00002AFF02B0BDE8F081BC4228BF3C4623016A
:100A1000D9E700BF0020A1073003002038100020D4
:100A20002DE9F04F89B002AF00F052FA03460028DA
:100A300040F092816C468AB002AAA449A448516150
:100A4000A449916141F6F071C2E907014FF40071C8
:100A50009184A14942F8101F4FF433519F4801F08F
:100A600041FAA5464FF00C0A9D4C012007F05AFFB1
:100A700094F804B0BBF1000F13D0BBF1030F33D0D7
:100A8000616998484023002908BF0146A2692046B1
:100A9000FFF782FFBBF1020F054635D00026B146B5
:100AA0003FE02289904BC2F10801490089B2102031
:100AB00001260225998099819982998304211E70CB
:100AC0005A80D8801D725A81D8811E745A82D88269
:100AD0001D765A83D88341F6F07383480093834B85
:100AE00007F0B9FE0546D9E7012120200D462289ED
:100AF0007D4B9980013109291D705A80D88003F1FE
:100B00000803F6D10821E6E70028C7DD00F1100947
:100B10004FEA89094B4655222046E169FFF73CFF21
:100B20000646002007F0FEFE002E20DA6D468AB051
:100B3000236802AA6E49D661C2E905134FF4007317
:100B400013846C4B42F8103F00234FF4115163485B
:100B500001F0C8F9AD4641F66A00002109F05AFAE1
:100B6000BAF1010A04F120047FF47FAF7AE7002D87
:100B700015DA6E468AB0236802AA5F49D561C2E9D8
:100B800005134FF4007313845A4B42F8103F0023AF
:100B90004FF41151514801F0A5F9B546DBE7D4F8FF
:100BA0000C80B8F1FF3F10D1E38854490133B1FB09
:100BB000F3F132202A01B1FBF0F02B0F0021FFF7F7
:100BC0006BFD012838BF01208046BBF1010F2AD1FF
:100BD000A36943B323684A49FB608B684FF47A7278
:100BE000BB60CB68D1E904017B600023FFF754FDB3
:100BF000EB468CB002AB9A624FF400729A851A46AB
:100C000040495961F9689961B968D9617968C3E95E
:100C100008103D4B42F8103F00234FF473512F480A
:100C200001F060F9DD4608F06FFE43468346294631
:100C30004020E28800F0B4F9034640B16D468AB026
:100C4000216802AA3148C2E90501D36176E7227919
:100C5000022A18D1F860206909F0EEF831464846BA
:100C600000F0CCF9FB6870B16D468AB0216802AA29
:100C7000274ED061C2E905614FF4007111841D490E
:100C800042F8101F61E7B8F1000F0ED1206909F09A
:100C9000D3F800F0C1F940B16D468AB0236802AACA
:100CA0001C49D061C2E9051348E7002107F114028D
:100CB00047F6122000F0C2F921680346044A68B3DF
:100CC0006D468AB0536802AA1348BCE7D0BF000043
:100CD0000080032002C00000050000018CB4000069
:100CE000B8B70000400D03003810002040800320FA
:100CF0001DC000000400000140C000000020A1074A
:100D0000300300205CC000000700000183C0000029
:100D1000A2C00000C2C00000E0C00000D2F828C09D
:100D200050687A696E468EB0A2EB0B09B4F806E003
:100D300002AADFF830B0C2E9075EC2E905B14FF49C
:100D4000007191860649C2E9098CC2E90B0942F893
:100D5000101F44F6C0411DE71C37BD46BDE8F08FAB
:100D600009000001F6C000002DE9F04F2DED068BC3
:100D700087B01E46039283888268642902FB03F3CE
:100D8000814608EE101AC568019306D96FF0150068
:100D900007B0BDEC068BBDE8F08F169B019A9A4216
:100DA0006CD80024039BA2465B0002936B1904934A
:100DB00044EB040305936B0009EE103A2746DFED80
:100DC000319A9FED31AA019B9F4201D13846DFE75E
:100DD000002320465146019AFFF75EFC2C194AF188
:100DE000000A8046002320465146019AFFF754FC32
:100DF000A0EB080BBBF5803F07F10107C6D2029BB1
:100E00005B45C3D2DDE90423D9F808104044A1FBB7
:100E10000001FFF741FC19461046FFF7F7FB07EE0C
:100E2000900AB8EE490A67EEA97A87EE800A06F0C2
:100E300027FFB0EEC07AF8EEC87A029B67EE877A99
:100E4000ABEB030307EE103AB8EE477A67EE877A0A
:100E5000F0EE408A87EE8A0A06F04EFF039BA6F862
:100E600006B07380B08030B1F5EEC08AF1EE10FAB2
:100E7000CCBF0120022006F8080BA4E76FF00B009E
:100E800086E700BFDB0FC9400000C8424FF4006294
:100E9000014B5A60704700BF00820D504FF4006252
:100EA000014B9A60704700BF00820D5008B5FFF7F4
:100EB000EDFFFFF7F3FF08F027FD034B1860034831
:100EC000BDE8084004F0C0B8300B0020F402002058
:100ED000F0B5002085B002F099FB00230193039345
:100EE00001236946029308F0BBF8041E04DB029B51
:100EF0009B07FCD1039C44B12346204A0121204892
:100F000008F0C1F9204605B0F0BD1E4802698168AD
:100F1000136823F4006313600B684FF4C0220B21A5
:100F20009847044610B1184A0346E7E7174DAE68E4
:100F300077684FB1034614212846154AB84704463E
:100F400028B1144A2346D9E76FF05704F9E733690B
:100F500043B10122142128469847044628B10E4A7D
:100F60002346CBE76FF05704F9E702220B4B58609A
:100F70009860586158621A60C4E700BFE7C100007A
:100F8000D4B40000F4AA000002C2000048AB000084
:100F9000AD0E000023C200004DC2000000800320FF
:100FA0002DE9F041124C1E4663688046022B0F4625
:100FB000154615D00F4804F0A1F800220123C4F80B
:100FC0000C8027616261E66125626262E2626360B1
:100FD000094883681B683BB1BDE8F0411021184700
:100FE0006FF00F00BDE8F0816FF05700FAE700BF27
:100FF00000800320F402002064AB0000054B024691
:10100000D86A20B95A6101229961DA6270476FF09B
:101010000F007047008003200122064B5A62DA62FB
:10102000054883681B6813B10022112118476FF02F
:10103000570070470080032064AB000010B50B46DA
:1010400014460246044804F033F818B914B1034BAF
:101050001B68236010BD00BFF4020020300B00208D
:101060002DE9F04F91B0009302F004030293C2F314
:10107000C2030133840705460E46DDF868A00392DB
:10108000059340F09C81041D002849D101F007061A
:10109000341DC6F10806009B00274FF004085A1EB5
:1010A0004FF0FF33B9460193BB46434604970DB159
:1010B000009820600598002800F3D6808F4800999A
:1010C000814203D38E488142C0F0CE800399601BD9
:1010D00011F0020C40F0D680B9F10F0F00F2CF8072
:1010E000002D00F0D68009F140010DEB010E0199B1
:1010F000C0F387000EF8200C0EF8101CBCF1000F96
:1011000000F0C38060F07F000EF8200C013709F179
:101110000109C5F108014FF6DA7E043406918CE02E
:101120000729B8D86FF01B0011B0BDE8F08F7A28FE
:101130005BD84B280FD8472857D829282ED82528E0
:1011400050D052D8202818BF23280CBF4FF0010BD5
:101150004FF0000B71E04C382E2846D8DFE800F045
:101160006D45454545454545454545454845454504
:101170004545454545564548485656566D486A4585
:101180006D4518481845457F7C48454548457C00D5
:1011900000204FF0000B4FF0040835E001212A3801
:1011A000C0B201FA00F010EA0E0F46D110F0625CF6
:1011B0002CD110EA010B40D06046013C4444B4FB02
:1011C000F8F408FB04F425B1A3EB050CA444B445E2
:1011D000A8D8002870D00598013805905AF8040B5B
:1011E000009064E70199013901914FF0000B24E070
:1011F00012F8010C6C2834D1002012F8023C83460E
:101200006C2BC8D14FF008084346D6E70AF1070A0D
:101210002AF0070A0734BAEC027B24F0070435B140
:1012200006982044B0423FF67DAF84ED007B4FF03E
:10123000000B08344FF00808434612F8010F00284D
:1012400053D0BBF1000F7FF472AF2528F5D14FF0DA
:10125000010B019B013301934FF00408ECE7584662
:1012600097E700208346A8E7039988077FF551AFE9
:101270004FF0010C601BB0F5007FFFF42DAF6FF055
:10128000150051E74FF0000CF5E704980130049089
:101290003DE7BCF1000F01D0013638E70299023674
:1012A00000297FF434AF0098CDE90632FFF70EFA3B
:1012B000DDE9063206442AE7042B08D10AF10400CE
:1012C00015B1DAF80010216082460434B5E70AF15E
:1012D000070323F0070303F1080A1DB193ED007B18
:1012E00084ED007B08230834A7E7631BB3F5806F08
:1012F000C5D23DB9A6F10804E01815E720AA000000
:1013000070CB0000029A9B0828602B709DF810306B
:10131000AAB1EB70AF702FB1002208A8C5F1010C83
:1013200091450ED14FF0000AC5F101030DF12008DF
:1013300001930DF1300BD14512D1601BF4E66B70B7
:10134000E8E710F8013B190608D50CEB040EB6458A
:1013500003F07F033FF6E6AE04F8013B0132DFE71E
:101360001FB198F90020002A17DB029BD3B11AF8AD
:101370000B2004F8012B0022019B18191044B042E5
:101380003FF6D0AE98F80000009904F8010B204613
:10139000039209F073F9039A14440AF1010A08F15F
:1013A0000108C8E798F8002055F822300093029B06
:1013B000009845F82230FFF789F9421CDCE76FF00E
:1013C0000D00B1E62DE9F04F97B000AF05468A4613
:1013D000C7E90A3249B903784678807800EB830080
:1013E0002844564524D8A0EB050AD7F8803095F854
:1013F000028003F00103D7F88040FB61EB78B8F17D
:10140000000F0CBF002404F001047B621BB1D7F86D
:1014100080309A0715D4A4B9FB6A1BB151462846FF
:10142000BA6A9847564630465C37BD46BDE8F08FED
:10143000441C2046FFF74AF9013020440AF1010A12
:10144000CFE7D7F88030C3F3C0033B622B78BB6192
:101450009B003B616B687B61BB6905EB830BFB6A9F
:10146000002B77D15646D844BCB11C461BF8013B33
:1014700055F82300FFF72AF9D7F88430013043B13B
:10148000D7F88830A34282BFD7F8843023F81400FD
:101490000134C3450644E9D1D846D7F880304FF02F
:1014A000000913F0050F0CBF4FF0020B4FF0010BBA
:1014B0007B6A9945B7D298F8013008F1020855F8CF
:1014C00023A0AE4B9A45C0F04D81AD4B3A6A9A4588
:1014D0002CBF002301230AB318F8021C7869FB62B1
:1014E00007F0C3FAFB6AC8B1EA468AB06A46A54B60
:1014F00005937B69CDE906314FF40073ADF82030D8
:10150000A14B42F8103F00234FF412519F4800F0C6
:10151000E9FCD546023E09F10109C9E723B1FB699F
:1015200033B9A6EB0B06F6E7D7F880309B07F2D568
:101530005046FFF7CBF8D7F884304BB1D7F8883056
:101540009C423FBFD7F88420431C22F8143001345A
:101550000644E0E7002C6AD1B8F1000F6DD0D7F84F
:1015600080305E076CD5C14607F1480042465946B7
:1015700009F084F800220BEB0803FB600233796A60
:101580008A425FD3D7F8802095F801B0F9699207B5
:1015900004EB0B0348BF0022DBB258BF4FEA5902ED
:1015A000002940F0A780D7F8801011F0040F14BF75
:1015B000494600216B70A970EA702846BA6A3969F9
:1015C000FB6A9847061EFFF62EAFBB6949462B7093
:1015D0007B6ABA6AEB7085F801B0FB6A85F8028015
:1015E00007F148009847B0F10009C0F2B7803B69A5
:1015F0007A6A786A03EB4201FB68414403EB4000DE
:10160000BA6AFB6AAAEB010198470028C0F2A880D9
:101610004FF0000BB14409EB000607F1380AA3456F
:101620006AD30021BA6A0846FB6A9847FBE644463B
:101630004FF0000907F1380098E74446C14699E7A2
:10164000A14697E713F8021C13F8016CB96055F82E
:1016500026004A498842C0F08B8049498842396A4D
:101660002CBF4FF0000B4FF0010B41B1B968786906
:10167000C7E9003207F0F9F9D7E90032F0B9BBF158
:10168000000F1ED0F96949B1611C04F1280007F16F
:101690003004041904F8206CCCB20FE0D7F88010A5
:1016A00048070BD509F1280007F1300C09F10101B9
:1016B00000EB0C0909F8106C5FFA81F90132023372
:1016C0005DE7D7F880108907DED409F1280107F11A
:1016D000300C8C44B96809F101000CF8101C07F1BA
:1016E000580109F1020951FA80F05FFA89F900F80E
:1016F000106CE3E700215DE71BF80A3055F82390F2
:1017000087F83730D7F884302BB3D7F888309B452B
:1017100021D2D7F8843033F81B800121BA6AFB6AE2
:1017200007F13700984700281ADB0644B8F1000F8C
:1017300006D14846FEF7CAFF00F101081FFA88F8F3
:1017400041464846BA6AFB6A9847002808DB0644C7
:101750000BF1010B63E74FF00008DEE74E4662E64F
:10176000064660E63B6A002B3FF4DEAE0023B3E69C
:10177000396A0029A5D04FF0000B77E720AA0000B6
:1017800070CB000079C200000400000174B40000B6
:10179000014B1860704700BFF000002080B505467F
:1017A0000E461746984603F085FF034601F03EFBC0
:1017B0000446DFF81890424649F800303946304672
:1017C000A84754F8090001F0ABFA00BF0800000078
:1017D0002DE9F047058B0446280717460CD501294B
:1017E0000CBF45F0100545F02005258387F31188CF
:1017F000BFF36F8FBDE8F087022905F0070540F0C1
:101800009480204607F0C9FB052864D801A353F84B
:1018100020F000BFED1700002B190000D7180000C2
:1018200099180000B3180000C518000001F0070364
:101830005A1F012A1FD8002221F00701062BD4F8D5
:10184000008089B2C4E9002209D1434603E0628BDB
:10185000013262831B68002BF9D141F0020120465E
:10186000218307F09AFB4FF0000900286DD041F06A
:101870002001218369E0042B0AD121F0070189B2FC
:101880002046218307F089FB10B141F0200121831C
:101890004FF00008C14658E02369D3F80090238B2D
:1018A00023F0070343F006034FF000082383464666
:1018B0004BE02369D3F80490238B23F0070343F014
:1018C0000403F1E72369D3F80890238B23F007037F
:1018D00043F00503E8E74FF00008C146E7E70122BF
:1018E00043F00803238387F31188BFF36F8F002A27
:1018F0003BD1B8F1000F4AD1B9F1000F02D0204618
:101900002C49C847EFF31187202383F31288BFF3D4
:101910006F8F238B23F008039BB22383D9063FD517
:1019200023F01002228303F007056669218B002E45
:10193000BFF67CAF00239946D4F8008021F0070160
:10194000C4E9003341F001012183238B03F0070A2E
:10195000AA4502D0A268002AC1D1B8F1000F02D175
:10196000B9F1000FDAD00022BAE7A1680029C0D08F
:101970000D680029BDD03346524620464F68B8470F
:101980001DB12B6829461D46F3E72B46FAE7414671
:10199000334652462046D8F8008007F02AFBA8E7D5
:1019A0009A067FF523AF23F02002228303F0070578
:1019B00027E700BF1F9000002DE9F04704460746C7
:1019C0004FF00109DFF84C8094FAA4F5B5FA85F5DB
:1019D00009FA05F32E0108EB05156FEA030A24EA5C
:1019E00003042B7B63B158F806301B696BB946447E
:1019F000736804222846196807EA0A0707F0CAFB39
:101A0000002CE1D13846BDE8F087284698470028E9
:101A1000F6D1ECE7ECB4000010B5002288B00E4916
:101A20000E4808F0C6FB002200230024CDE906235F
:101A30000E234FF44072CDE90334CDE90144084B45
:101A400008490094084803F0CFFB0849064808F00D
:101A500047FA204608B010BD711A0000180800208F
:101A60008D1D0000409000204803002038C3000076
:101A7000014803F0E9BA00BF040300202DE9F04754
:101A8000804621480F4607F069FB0646002833D000
:101A900000252846BDE8F087237B83B12368DB68F7
:101AA0000BB120469847636883F8069023681B694A
:101AB000D3B9636804222046196807F06BFB01362E
:101AC00010345445E8D3B8F1000FE2D0002DDFD038
:101AD0002846FFF771FF0546002FF7D0002140F29E
:101AE000391008F097FAF1E7204698470028E0D02F
:101AF00009FA06F31D43E2E705464FF00109034CDE
:101B0000DFF80CA0DDE700BF440B0020ECB40000C0
:101B1000FCB40000014B53F8200070474CB90000A2
:101B200008B5034608462BB1044A136000F038FCA0
:101B3000002008BD6FF01500FBE700BFF400002097
:101B400010B5044C237813B9034803F07DFA012340
:101B5000237010BD389000200403002010B5044607
:101B6000094807F0FBFA3CB1084BD3E8EF1F0139F5
:101B7000C3E8E21F002AF8D1054804F0ABF8BDE83D
:101B80001040044803F060BA3C0B0020400B0020DA
:101B900018080020040300200022044BD3E8EF0FB4
:101BA000C3E8E12F0029F9D1704700BF3C0B0020AA
:101BB00070B5FFF7F1FF0546074C084EB44200D35D
:101BC00070BD63685B792BB123685B6813B12946EC
:101BD000204698471034F1E7ECB40000FCB4000054
:101BE00010B5044C0449204607F06CF8034B1C6008
:101BF00010BD00BF7C02002038B90000340B00206B
:101C000000230D4A10B513700C4A0D4913600D4A9C
:101C10000D481360FFF784FFFFF7E2FF0B4B0C4901
:101C200018468B4200D310BD1A1A5C68121101329B
:101C300022711033F5E700BF399000203C0B0020E3
:101C400040420F00400B002059910000ECB400000E
:101C5000FCB40000014600220023014807F053B8FD
:101C60007C020020014807F0EAB800BF7C02002097
:101C7000024B0146186807F03DB900BF340B002045
:101C8000014807F072B900BF7C020020F8B5284B6C
:101C90001B78002B4AD0FFF7E5FF0446002842D10D
:101CA000244B254D1B68002B19DD08F080FA4FF4FA
:101CB0007A76A0FB060747F61222002306FB017185
:101CC000FEF7EAFCD5E90032C01A40F2E93361EBD5
:101CD0000201984271F1000101D3FFF769FFD5E9D4
:101CE000003213F57A7342F10002C5E90032ECB11B
:101CF000BDE8F840FFF7C4BF6B685B7923B12B6880
:101D0000214628461B6898471035B542F4D3204633
:101D1000FFF7AEFF094BD3E8EF1F0139C3E8E21F1D
:101D2000002ABDD0F7E7064D064EEEE70020F8BDCD
:101D3000389000203C0B002010080020400B0020B1
:101D4000ECB40000FCB4000070B50D4D297861B909
:101D50000120FFF793FE0B4C0B4EB44206D3FFF766
:101D600095FF0028FBD101232B7070BD63685B7960
:101D70001BB1236820469B6898471034EDE700BFED
:101D800039900020ECB40000FCB4000000212DE9E3
:101D9000F8430846FFF772FE044648B340F21B685A
:101DA0004FF0000901F042F81A4B1B4A1B58136010
:101DB00033B11A4B1B68092B02DD194803F044F9B3
:101DC0000025184F44B12046FFF7F6FD044618B928
:101DD0004FF0FF384FF0FF39FFF758FF064628B99C
:101DE000B5B90F4842464B4603F062F93546E9E77C
:101DF0004FF0FF384FF0FF39D4E72B689B691BB1D8
:101E000000222846114698471035BD42F5D3E8E731
:101E1000054DFAE708000000380B0020400B0020B9
:101E200004030020FCB40000ECB4000013B5184813
:101E300007F094F9174B1B7873B1EFF3118420234B
:101E400083F31288BFF36F8FFFF720FF84F31188AD
:101E5000BFF36F8F02B010BD0F4B1B68002BF9D082
:101E600050B9002200230D48CDE9002347F6122285
:101E7000002303F0F7FEEDE70928EBD1074803F054
:101E800029FF074802B0BDE8104003F0DDB800BFED
:101E9000400B002039900020380B0020180800204B
:101EA0000403002010B5064B04461B6898472146E2
:101EB000A060044806F0A4FFBDE81040FFF7B6BFDD
:101EC000F40000207C020020044A054B9B1AB1EB71
:101ED000D30F34BF52F83100002070476CB40000BB
:101EE000ECB400002DE9F04F8FB0C1F34A2604AFE7
:101EF0000D469046B8607B600C0D002E61D04FF00F
:101F000000090A234FF0040B07F1140AFE60C7E929
:101F10000799C7F824900093CDF808B0CDF804A035
:101F200007F11C034A464046F968FFF74BFAB0F543
:101F3000006F03461CD36C468AB0D8F8041004AB7B
:101F400024481A46C3E9050140F2FF71D9614FF4F4
:101F500000711984204B42F8103F4FF412514B4648
:101F60001E48FFF7BFFFA5462C37BD46BDE8F08FE2
:101F7000C0F30A0604F11700184420F00700800897
:101F80003B60FFF767FE66F35325044680B13B686C
:101F900000F11001C7E908390A23F961CDE901AB65
:101FA000009340460E4AF96807F11C03FFF70AFA4E
:101FB00066F353252A4620467B68B96807F00AF97C
:101FC000D2E704F1170020F007008008FFF742FE77
:101FD0000446EDE74DC300000400000194B4000086
:101FE000A79100002DE9F04F87B00546DDE9106BA1
:101FF000DDE9127A884614469946BFB110213B4666
:102000005A460020CDF800A0CDF814A0FFF728F81C
:10201000B0F5006F01460BD340F2FF730221184A5E
:10202000184807B0BDE8F04F07F02DB939463846DB
:1020300004F0070305F00704E40044EA831444EACB
:10204000402444EA065406F11700084420F0070033
:1020500080080391FFF7FEFD054640B13FB13B46C6
:102060005A460399CDF800A01030FEF7F9FF4B4611
:1020700022464146284607B0BDE8F04F07F0AAB80F
:102080008CC3000094B40000406820B1034BC01A18
:1020900040F3CF0070474FF0FF3070476CB4000042
:1020A0000EB403B503AB53F8042B01460448019367
:1020B00001F0F0F802B05DF804EB03B0704700BF28
:1020C000D1920000CA0605D48B064CBF02490349D1
:1020D000FFF7E6BF704700BFC5C30000C4C30000E0
:1020E0002DE9F04F89B098469DF85090159B044615
:1020F00006930D46DDE916A3189F05920493B9F1E6
:10210000000F00F0AE8007F48073079307F040F8EB
:1021100007F0020B0246002872D020467649FFF7EE
:10212000BFFF0646BBF1000F08D017F0440F69D17E
:102130002A4620467149FFF7B3FF064407F0010322
:1021400053B16F4B204653F829206E4B6E49002A3D
:1021500008BF1A46FFF7A4FF07F48073002B07F0AF
:10216000080318BF4FF00008002B77D0674B2046BC
:1021700053F829206649FFF793FF0546059B2BB1CD
:102180001A4620466349FFF78BFF0544B8F1000F5C
:1021900005D0424620466049FFF782FF05445F486C
:1021A0003544069B1BB122465D4906F02DFC049B7D
:1021B000002B00F08C80049B3946102B28BF102385
:1021C000204698460026FFF77DFFB54250DC0026EA
:1021D000334620461AF803205249FFF761FF0136C3
:1021E000102E4BD0710703D120464F49FFF758FFFF
:1021F00046453346EDD320464C49FFF751FFEEE705
:1022000006468FE74A4B1868002896D0494B4FF492
:102210007A7B1B684FF03C0CB5FBF3F5B5FBF0F196
:102220004FF4616300FB11550BFB05F5B1FBF3F2B5
:10223000B5FBF0FE03FB121100FB1E55B1FBFCF3D6
:102240000BFB05F5B5FBF0F50CFB131120460091D7
:10225000CDE901E53849FFF723FF6EE707F00805F0
:102260008CE7B8F1010F4D460CBF2C48334898E776
:1022700020462D49FFF714FF0136A6E70026204629
:102280002F49FFF70DFF33461AF803202046A2F12D
:1022900020035F2B28BF2E222A49FFF701FF0136BA
:1022A000102E0DD0720703D120461F49FFF7F8FE0C
:1022B000B0453346E8D820461B49FFF7F1FEEEE76C
:1022C000049BC244B3EB080304937FF474AFB9F1E9
:1022D000000F0AD0FB0704D520460A4A0A49FFF737
:1022E000DFFE39462046FFF7EDFE204609B0BDE887
:1022F000F04F06F0E0BF00BFCCC30000D0C3000029
:102300005CB90000C7C30000F5C3000070B900004D
:10231000F8C30000FEC3000002C40000D192000018
:102320009532000007C400000FC400000DC4000077
:102330004C0B0020480B0020D9C30000FF92000086
:1023400011C4000013C4000042F20F7373B58B4236
:1023500028BF0B4605680446052168460D4A04F06F
:10236000C5FB0646636828460B225B680A4906F0EF
:1023700094FF63683246694628465B6806F08DFF25
:1023800063681B2228465B68044906F086FF02B09A
:1023900070BD00BFAFC5000047CB00002BCB0000D5
:1023A00000210123064A904206D8064A01B90123BA
:1023B0001360054B18607047012140085B00F2E78D
:1023C00040420F00480B00204C0B0020F8B50D4692
:1023D0000446064F4618B44201D12846F8BD14F809
:1023E000011BBB6801485B689847F4E72CAB000011
:1023F000014B036000207047B8B9000008B50448DD
:1024000006F052FB034806F04FFB002008BD00BF5A
:1024100050C4000085C4000008B50348034A0021E9
:10242000121A06F0E9FF08BD30030020409000209A
:10243000074808B5074A0849121A06F0DFFFBDE849
:1024400008400648064A0749121A06F0D7BF00BFDF
:10245000600000202C03002070CB000060000020F2
:102460006000002070CB00002DE9F84F80460C463C
:1024700000AF002965D0D1E90012E9468AB0A3680F
:102480006D464FF0050A6E463748CDE90723CDE982
:10249000050146F810AF002332464FF4215133486E
:1024A000FFF720FDD4E90312CD466369AD463048FD
:1024B000C5E90723C5E90501C5F810A00023324688
:1024C0004FF421512948FFF70DFDCD46E369012165
:1024D000284A264806F0D7FE264600254FF00A0A6D
:1024E000DFF8A0B0E946D6E908C0D6E90A138EB0F5
:1024F0006A46CDF81CC005F1010CCDE908C0A81C46
:10250000CDE90A01E91CCDE905B5CDE90C1342F886
:1025100010AF002345F2400114480435FFF7E2FCF8
:10252000102DCD4606F11006DCD1236E0121124A92
:102530000E4806F0A8FEA3690121104A0B4806F0D8
:10254000A2FEB8F1010F07D1EFF305830C4A414613
:102550000648103B06F097FE2146404602F028FB55
:10256000BD46BDE8F88F00BFB2C40000BCB4000097
:10257000E1C4000010C5000062C5000071C5000084
:102580009FC500001FC5000030BFFFF7FDBF00BFA3
:102590002DE9F04105460B4EDFF83080324606EB60
:1025A0000807CC1B2046084908F068F8A0194246E5
:1025B0000021083C08F06FF8AC6707F10800BDE89F
:1025C000F08100BF00000000FCB400000400000027
:1025D00010B5244C2449254806F01DFFA36A990133
:1025E0003ED52248224906F016FF1E20A36ADA01D2
:1025F00004D51E481F4906F00EFF1F20194CA36A80
:10260000DB0204D519481C4906F005FF0220A36A25
:102610001C0304D51548194906F0FDFE2120114C74
:10262000A36A590304D51148154906F0F4FE222087
:10263000A36A9A0304D50D48124906F0ECFE232044
:10264000084CA36ADB0304D508480F4906F0E3FEF3
:102650002420A36A6FEA03436FEA1343A36210BD09
:102660001D20C3E700ED00E0B2C50000BCB40000CF
:10267000CAC50000DDC50000F7C5000021C6000086
:102680003FC6000064C600007EC6000070B5064666
:102690000D46294C29492A4806F0BDFEA36ADB06EF
:1026A00047D52748274906F0B6FE1120A36A1C0724
:1026B00004D52348244906F0AEFE12201E4CA36A1E
:1026C000990712D521491E4806F0A5FE636BA26A40
:1026D000120609D501211E4A194806F0D4FD1EB183
:1026E000A36A23F08003A3621320134CA36ADE07BE
:1026F00004D51348174906F08EFE1420A36A9C06E1
:1027000004D50F48144906F086FE15200A4B9A6A34
:10271000D10658BF9A6A9A6A920642BF5A6A22F450
:1027200000525A629A6A42F0FF029A6200232B70AA
:1027300070BD1020BAE700BF00ED00E0A9C60000A0
:10274000BCB40000BFC60000F2C6000005C7000010
:102750001DC7000033C7000052C7000070B5064611
:102760000D46284C2849294806F055FEA36AD9048D
:102770003CD52648264906F04EFE1720A36A1A05C6
:1027800004D52248234906F046FE18201D4CA36AB2
:102790009B0512D51D48204906F03DFEA36BA26A99
:1027A000100409D501211D4A184806F06CFD1EB120
:1027B000A36A23F40043A3621920124CA36A5905AB
:1027C00004D51248164906F026FE1A20A36ADA0537
:1027D0000ED50E48134906F01EFE1B20094A936AC7
:1027E00043F47F43936200232B7070BD1620C5E72E
:1027F000A36A9B04F2D505480B4906F00CFE1C2089
:10280000ECE700BF00ED00E081C70000BCB40000B1
:1028100097C70000F2C60000A8C70000C1C70000AB
:10282000D6C70000F1C7000052C700002DE9F041F3
:102830009CB0644B0546D3F80480002600AFC8F373
:10284000080486F31188BFF36F8F02F07F43B3F162
:102850007F4F07D102F00C03082B12D15A495B4875
:1028600006F0D9FD002635460023FB71E31E092B37
:1028700000F28880DFE803F00A7E817A8686868609
:10288000868410074CBF0D460126EDE750494F489E
:1028900006F0C1FD00234B4CFB71E36A9A0705D596
:1028A0004C494A4806F0B7FD00242DE0E36A002BAE
:1028B00001DA4949F5E7E36A5B00F5D54749434842
:1028C00006F0A9FD6369AA6943F480736361BFF3ED
:1028D0004F8FBFF36F8F32F8023C626922F480722F
:1028E0006261BFF34F8FBFF36F8F03F47F42B2F586
:1028F0005F4F25D1DBB2022B22D12B680121384A50
:10290000324806F0C0FC2C68FB79ABB96822294636
:1029100007F1080007F0B2FE7B6A002E4FD0C3F328
:10292000080222B96FEA53236FEA43237B622046F1
:1029300007F10801FFF798FD7037BD46BDE8F0814B
:10294000204B9A6AD2B222B10120F91DFFF79EFEF8
:102950000EE09A6A12F47F4F04D00120F91DFFF7B0
:10296000FDFE05E09B6AB3F5803F9DD3FFF730FE87
:102970000446C9E70020F91DE8E70020F91DEEE74D
:1029800018498EE7184A18F4F87FE8468AB0174BC2
:1029900008BF13466A461649103CCDE905134FF4AB
:1029A0000073ADF82030134B079442F8103F00231A
:1029B0004FF411510548FFF795FAC54674E76FF3D8
:1029C0000803B3E700ED00E037C80000BCB4000026
:1029D00062C8000079C800009AC80000A8C80000BA
:1029E000C7C80000E3C8000009C800001EC80000F6
:1029F00007C9000004000001064B5A6942F01002AA
:102A00005A615A6942F480625A615A6922F0080296
:102A10005A61704700ED00E0EFF30880EFF30981A1
:102A200001B57246FFF702FF01BD00BF002080F331
:102A30001488BFF36F8F002080F30A8880F30B881F
:102A40000F4880F3088801F065FA00200D490860FE
:102A5000BFF34F8F00F02CF8202080F311880A4834
:102A60004FF40061401880F30988EFF314800221CD
:102A7000084380F31488BFF36F8F00F0A5F80000BF
:102A800080A0002094ED00E0409300200023184631
:102A90000649D1F89020C2F30722934200DB704729
:102AA000C1F89830C1F8A0000133F6E700ED00E06E
:102AB00010B572B6002484F31388FFF7E7FF2346AE
:102AC0004FF0FF300C4A03F120010133102B42F884
:102AD0002100F8D100234FF0FF30074A03F16001D5
:102AE0000133102B42F82100F8D162B6BFF34F8FAB
:102AF000BFF36F8F10BD00BF00E100E01EF0040FB8
:102B00000CBFEFF30880EFF30980816911F8021C14
:102B10000229FFD001B5724606F072FC01BD00BF6C
:102B200000B2002807DB01234109034A00F01F001F
:102B3000834042F82130704700E100E000B20028F5
:102B40000CDB01220649430900F01F0082402033BC
:102B500041F82320BFF34F8FBFF36F8F704700BF43
:102B600000E100E0054B420953F82220012300F068
:102B70001F0003FA00F01040704700BF00E100E0C2
:102B800000B2002801F10101ACBF00F16040064B2A
:102B90004FEA4111C9B2ABBF00F5614000F00F0030
:102BA00080F800131954704714ED00E0044B054AF7
:102BB00023F07F039360BFF34F8FBFF36F8F704796
:102BC0000000000000ED00E008B5FFF7EFFF104B3C
:102BD000D3F8882022F47002C3F88820D3F8882024
:102BE00042F4A002C3F888204FF04042C3F83422D8
:102BF000BFF34F8FBFF36F8F0023E1EE103AFFF763
:102C00000BFCFFF715FC00F0EFF802F0F3F800BF43
:102C100000ED00E04FF47D41C0F8C41042F8203CC4
:102C2000009B0B4942F81C3C019B21F0010142F83A
:102C3000183C029B42F8081C42F8143C4FF0807389
:102C400042F8043C0023203A0265C367704700BF86
:102C50009D170000104B9B6883421AD1EFF305804B
:102C6000B8B9EFF31181202282F31288BFF36F8F7E
:102C70009A8922F002029A81EFF3148323F004036D
:102C800083F31488BFF36F8F81F31188BFF36F8FC5
:102C900070476FF0150070478C0C00200E461546EB
:102CA000002300B5E1EE103AEFF3148323F00403A0
:102CB00083F31488BFF36F8FBFF36F8F0B4B826F5B
:102CC00098600B4B1A60836E83F30B882C4686F357
:102CD00009880020034B984720460021002200234A
:102CE000014C2047339400009D1700008C0C0020FD
:102CF000740B00201022014B1A61704700ED00E0B8
:102D0000054B9A699B689A421FBF044A536843F077
:102D100080535360704700BF8C0C002000ED00E032
:102D2000084B9B6883420BD1EFF3058343B1064BFD
:102D30005A6842F080525A605A6A22F400425A623B
:102D400002F0BEBC8C0C002000ED00E023498A6834
:102D500082F8C5E04FF030001044EFF3098C80E8B2
:102D6000F01F1EF0100F03D102F1840080EC108AD6
:102D7000202080F31288BFF36F8F194F4FF0006649
:102D80008A698A603E60906F164C206092F9C5E0B7
:102D9000D06F0023D36780F311881EF0100F03D08B
:102DA0000023E1EE103A03E002F1840090EC108A77
:102DB000EFF3148323F0040383F31488BFF36F8FBE
:102DC00002F1300090E8F01F8CF3098802F1000056
:102DD00004B506F028FBBDE8044070478C0C0020C9
:102DE00004ED00E0740B00200023202040F20F12BD
:102DF00010B5044CE1180133934281F80003F9D176
:102E000010BD00BF00E100E008B5EFF30583064AFE
:102E1000103B02EBC30152F8330049688847BDE814
:102E20000840FFF76DBF00BF80AB0000014800689D
:102E300070470000740B00201FB50121094B0A4A9E
:102E40000A4800F00FF90023064A0393084B0121BA
:102E5000019301A8D31A029300F00EF905B05DF8B2
:102E600004FB00BF0080022000000020B8B9000071
:102E7000300300200A7A0B6810B562F304031C4685
:102E8000CB68520923F01F0343EA4203044A43F08C
:102E90000103C2F89800C2F89C40C2F8A03010BDEF
:102EA00000ED00E010B50A4BD3F89030C3F30723D0
:102EB000013B984208D901210346064A064806F01C
:102EC000E2F96FF0150010BDFFF7D4FFFBE700BF7C
:102ED00000ED00E01EC90000ACB400002DE9F04F89
:102EE0008946144606464FF000084F4D85B0C84548
:102EF00027DAD6F804A0BAF1000F44D0BAF11F0FB8
:102F000017D91AF01F0F14D1D6F800B01BF01F0FFD
:102F10000FD1584606F0B0FA07460AEB0B0001380D
:102F200006F0AAFA874210D06FF015073F4A3B46D9
:102F300001E043463E4A01213E4806F0A4F96FF005
:102F40001504204605B0BDE8F08F17F1160FEDD03F
:102F5000BC42EBDDC5F89870D5F89C10C5F89870A8
:102F6000D5F8A03021F01F0143F01F0BD6E9003245
:102F70001A44994202F1FF3A1AD1D34507D131469A
:102F8000F8B206F082FA08F101080C36AFE73146D4
:102F9000C5F89870D5F89C30E0B263F30402C5F828
:102FA0009C2006F072FA10F1160FC8D0441CEAE714
:102FB000C5F89870D5F8A020013B23F01F0302F05C
:102FC0001F021343D3453146E0B2C5F8A030E8D024
:102FD00006F05BFA10F1160FB1D0C5F89870D5F86D
:102FE0009C209DF808300BF1FF3B62F304038DF841
:102FF0000830D5F8A0309DF808205B0863F347122D
:103000008DF80820D6E900321344009323F01F0303
:103010005B44A3EB0A03013023F01F036946C0B2EF
:103020000393FFF73FFFBEE700ED00E06AC9000031
:1030300044C90000ACB400000522044BC3F894203E
:10304000BFF34F8FBFF36F8F704700BF00ED00E0FD
:10305000BFF35F8F0022024BC3F89420704700BF7C
:1030600000ED00E010B5034C2278FFF737FF207029
:1030700010BD00BF3B9000202DE9F74F294D8A4637
:1030800006464FF00008AB46274FD0451BDAD6F86E
:103090000490B9F1000F3FD031680846019106F065
:1030A000EBF90199044609EB0100013806F0E4F957
:1030B00084424FF014021D4B08D002FB08F36FF05E
:1030C00015024BF8032003B0BDE8F08F14F1160F82
:1030D0002C60F8D01978A142F5DD02FB08B0C7F8E2
:1030E0009840C7F89840D7F89C4000F10801007B51
:1030F00064F304000871D7F8A0000C79400860F36D
:1031000047140C71D7F89C1021F01F016960D7F8A3
:10311000A01021F01F01296108F1010814350C36B7
:10312000B3E700BF780B002000ED00E03B900020EB
:10313000F0B55349534DD1F890302C68C3F30723B1
:103140009C4287B000F299800020FFF781FF4E4B30
:10315000C1F8C030844216D14C4D01A82C70FFF745
:1031600047F9002607464A4CB74213D100202B7876
:103170004349D1F89020C2F30722934277DBFFF74F
:103180005BFF002046E0696801EB0011FFF772FE6B
:103190000130DFE70199300101EB0613DA682240C4
:1031A000B2F1807F52D00AD8B2F5001F34D0B2F508
:1031B000800F3ED0B2F5801F12D00136D4E7B2F1B5
:1031C000006F43D0B2F1805FF7D15A689B6809580D
:1031D000013B22F01F00034423F01F03012032E0D3
:1031E0005A689B680958013B22F01F0003440120E4
:1031F000844623F01F0340EA4C10CDE902218DF8EC
:10320000100002A928780593FFF74CFE00282ADA5F
:103210006FF0150007B0F0BD5A689B680958013B74
:1032200022F01F0003444FF0020C012023F01F0383
:10323000E1E75A689B680958013B22F01F000344EC
:10324000062023F01F034FF0000CD4E75A689B6858
:103250000958013B22F01F0003444FF0030C0120EA
:1032600023F01F03C7E72B7801332B70A5E7C1F8C4
:103270009830C1F8A00001337BE74FF0FF30C9E779
:1032800000ED00E0C4B90000AAFF44003B9000201C
:103290000000F0FFF0B587B007460E461446002147
:1032A000102268461D4607F0F6F902238DF8023019
:1032B000054B2A4621466846CDE90476019303F082
:1032C000CDFC07B0F0BD00BFBD94000008B5024BB7
:1032D0001B689847002008BD8C0B0020034B044A54
:1032E0001860937843F00203937070478C0B0020B2
:1032F0000001002008B50649064821F00701C1F188
:10330000005202F5203205F03EFB002008BD00BF50
:1033100087A00020900B002008B5244A244B1A6097
:1033200000F060F84FF47A612248D0F82436C3F3F5
:103330000802C3F309434B4382F480721E4988326A
:1033400001FB02334FF4FA215B00B3FBF1F201FB06
:1033500012331A49B3F57A3F28BF0132C1F8042964
:10336000D0F820364FF47A60C3F30802C3F3094360
:10337000434342F21C5082F4807202F2172200FB97
:1033800002334FF47A701B0AB3FBF0F200FB1233E6
:103390000020B3F5FA7F4FF0010328BF0132C1F8D6
:1033A0001C27C1F80009C1F8003608BD0020A1079C
:1033B0000C02002000C0FF00F82A0080000012501C
:1033C00048B1054B054A1B68B3FBF2F35843044B65
:1033D00043F00103184770470C02002040420F00E1
:1033E00010B500000122024BC3F80424704700BF4F
:1033F000002008E0084B70B5C31A0D4607499B1022
:10340000044659434022064806F0B9F82B460146C7
:103410002046BDE870401847B00B0020B76DDBB602
:10342000BCAA0000402373B50B4C0093041B0B4651
:103430000D460A49A41061430646094A094806F0A8
:10344000CAF8014628B130462B4602B0BDE87040AC
:10345000184702B070BD00BFB00B0020B76DDBB6DF
:1034600043960000BCAA0000F8B5002201210546E1
:1034700040F20510FFF784FB0F4800F0F5FD04460D
:10348000B8B900F011FE2F690C49384605F0D5FD9A
:10349000031E09DB01263E642D69084905F11C0065
:1034A00005F0CBFD031E02DA1C462046F8BDEE6493
:1034B000FBE76FF00404F8E7ED35000004BA000004
:1034C0001FB5002201236C46CDE902236B46074A53
:1034D000CDE9004406F0AEF828B943F609520023BE
:1034E000684601F0E5FD04B010BD00BF579600002E
:1034F00010B5EFF31184202383F31288BFF36F8F8D
:10350000074A136823F00201DB07116002D401208F
:1035100006F04FFA84F31188BFF36F8F10BD00BF20
:10352000000C00200C22104B014602FB003300204F
:1035300030B4D3E90E529863EFF31180202484F362
:103540001288BFF36F8F1C6C04F0C00444F00204B7
:103550001C6480F31188BFF36F8F1DB12B4630BC04
:103560000248184730BC7047B00B0020BCAA0000CE
:1035700010B4EFF31180202282F31288BFF36F8F13
:1035800017490B6843F0020413F001030C6017D0D5
:10359000144BD3F80C3413F4803311D0EFF31181B2
:1035A00082F31288BFF36F8F0F4A136C03F0C003CE
:1035B00043F00203136481F31188BFF36F8F01237B
:1035C00080F31188BFF36F8F23B100205DF8044BA7
:1035D000FFF7A8BF01205DF8044B06F0E2B900BF79
:1035E000000C002000E01050B00B0020022808D092
:1035F000042808D1044B186C10F0070003D1FFF722
:1036000091BF0120FBE77047B00B0020C3B21C2024
:10361000014A00FB03207047B00B00202DE9F04168
:10362000012280463549D1E8EF3FC1E8E02F00286C
:10363000F9D133B9324933484B60CB608A6005F029
:103640000FFD08F1FF33012B4BD8B8F1010F06D164
:103650002D4BD3F8503403F00303012B41D006F077
:1036600039FC054650B1EFF31186202383F312880D
:10367000BFF36F8F0125244C244F20E0244B1B788F
:10368000002BF0D00422204B0646C3F80823F2E7B3
:103690004DB3304605F0E1FED4F8403413F0FF039B
:1036A0000DD1D4F8082152B1C4F80831D4F808314A
:1036B00020220123C4F84034C7F8A0212361D4F8A4
:1036C0004C24D4F84C34D203E2D503F00303012B8D
:1036D00002D0B8F1010FDBD155B186F31188BFF3E9
:1036E0006F8FBDE8F0810021202006F093FCD3E726
:1036F0000422054BC3F80423F3E700BFAC0B002002
:103700009C0B0020CC0B002000E0105000E100E0FA
:103710003E90002008B5074806F0AAFB38B10648DD
:10372000FFF7DCFD0448FEF733F8002008BD6FF01A
:103730001200FBE72CAB00003D3700000A2838B52B
:103740000446074D04D1AB680D2128465B689847B5
:10375000AB6803485B68E1B29847204638BD00BFBC
:103760002CAB00002DE9F04340F206354768D00647
:1037700048BF4FF0030C3B7C02EA050558BFC2F37B
:10378000401C87B001F01F06B5F5837F144646EA5A
:1037900043168DF803C045D00DD8062D44D005D86A
:1037A000A5B1022D12D06FF0150038E0B5F5807F7D
:1037B000F9D101250AE040F20222954236D0B5F552
:1037C000407F35D0B5F5007FEDD10425220331D5FA
:1037D00001237A688B405360B86890BB5F2E06F077
:1037E0001F034FEA561175D83C4A52F82120C4F302
:1037F000004102EB8302D2F8803081F00101C4F372
:10380000404423F4706344EA410423F00F031C4353
:1038100044EA8C0444EA0524C2F88040002007B042
:10382000BDE8F0830925D1E70825CFE70625CDE7D8
:103830000525CBE7630341BF01237A688B40936082
:10384000CAE731460DF1020206F086FA14F4403F51
:1038500080460CD13146B86806F097FAB8F1000FEF
:10386000DCD19DF80210B86800F0AAFED6E74FF050
:10387000000901ABCDE90199CDE90439CDF80C90EF
:103880003146B86803AA06F0B0F94845C6DB14F41F
:10389000003314D09DF80330C4F3004484F00104D5
:1038A0008DF80E308DF80C508DF80D404B4631469A
:1038B000B86803AA00F0D6FD0028CFDAAEE7CDE95C
:1038C00004330DF1030303933146B86803AA06F0ED
:1038D0008CF9F1E7203350F82330FFDE28BA0000DE
:1038E0004209022A034670B503D0012A18D0CAB192
:1038F00070BD0E4E326951680029F9D0012503F0E0
:103900001F030C689D400029F2D08A682A4002D02B
:1039100030464B6898473CB1236821461C46F2E785
:10392000034EE7E7034EE5E72346F6E710AB00005A
:10393000F4AA0000D8AA000038B54568A868C0B14C
:1039400006F01DFA0146A0B9A86800F001FE044681
:1039500088B902460949A86806F0FBF92246012108
:10396000DB20FFF70DF92246012140F20D10FFF791
:1039700007F9002038BD6FF00400FBE7E1380000D4
:10398000F0B544681646A068227C01F01F0587B098
:1039900045EA421500286CD0B6F5001F04D129462F
:1039A00006F045FA002055E06268607CB6F5800FAD
:1039B00050624FF0000001AA0190506039D1B3F17C
:1039C000007F14BF052304238DF804300023CDE9C4
:1039D00004230393E3680DF1030723FA01F111F0C7
:1039E000010139D1B6F1A07F36D105F01F035F2D5B
:1039F0004FEA551003F120033ED8214A52F8202007
:103A000052F82330DB0727D43A462946A06806F04F
:103A1000A3F9163018D002972946A06803AA06F029
:103A2000E4F8002816DB01222946A06806F0AFF969
:103A3000B8E7B3F1C06F05D0B3F1007F14BF012325
:103A40000223C1E70323BFE73946A06800F0C2FDA7
:103A50000028E0DA07B0F0BD3A462946A06806F033
:103A60007BF90028D8D19DF80310A06800F0A8FDCC
:103A7000D2E76FF08500EDE751F82330FFDE00BF9D
:103A800028BA000030B5162904692AD84568AB6801
:103A9000CB40DB0725D5A36B23FA01F000F0010032
:103AA000C2B108BB012202FA01F1194394F83C307B
:103AB000A1631BB1B5F90430002B01DA002030BD41
:103AC000590903F01F039A4001F14003084941F8E6
:103AD0002320F3E740B101228A4023EA0203A363D3
:103AE000ECE76FF01500EAE76FF07700E7E700BF5B
:103AF00000E100E0036803F01F025F2B02604FEA61
:103B000053129ABF024B53F822000020704700BFA7
:103B100090BA00002DE9F04F9246054640F2FF189A
:103B2000514E85B000EB8101A94203D1002005B0C0
:103B3000BDE8F08F2A68C2F3C323082BC2F3080440
:103B400000F28F804948444508BF4FF0FF34B2F17E
:103B5000D05FC75C4FEA126314D2152B04D8032B35
:103B600009D96FF08500E2E7173B022B39D8DFE86F
:103B700003F041444700013B022B19D8DFE803F072
:103B8000262B2E00382BECD103A80394FFF7B2FFAD
:103B90004FF00109039B00EB8300D0F8803023F045
:103BA000E04343F08043C0F88030601C38D11FE010
:103BB000CAF80446631C1BD003A80394FFF79AFFBE
:103BC0000122039B02FA03F3436027E0CAF80C4684
:103BD0004FF00009E9E7CAF81046EBE7CAF80846D3
:103BE000F6E7CAF860456B88621C03F001030AD14E
:103BF000043599E7CAF86445F5E7CAF86845F2E77D
:103C0000CAF86C45EFE7002BD6D103A80394FFF761
:103C100071FF0122039B02FA03F383604FF0010955
:103C20002B6803A81A0452BFCB464FF0010B4FF08C
:103C3000000901930394FFF75DFF039C019B00EBD8
:103C40008400D0F88040C3F3412C3B0243EA8C034C
:103C500043EA09033440234343EA4B03C0F880306E
:103C6000C6E76FF0150062E7F0F0FCFF53CB0000F1
:103C70002DE9F04104460D46476806F02BF988B15E
:103C80002021EFF311831A4681F31288BFF36F8F5F
:103C900060680068D0F83001D0B983F31188BFF3B1
:103CA0006F8FEEE71E4B1B78002BE9D04FF02008FA
:103CB000642663681B68D3F83031FBB9012005F036
:103CC00039FE013EF5D10021202006F0A3F9EFE7EF
:103CD0007B6A00201D706368796A1B68C3F83C1713
:103CE0000121C3F84017C3F83001D3F8300119653A
:103CF00082F31188BFF36F8FBDE8F081EFF311837A
:103D00001A4688F31288BFF36F8F61680968D1F88B
:103D100030110029DCD183F31188BFF36F8FD2E714
:103D20003E90002070B40F4CD4E90015501A63EB9C
:103D30000506400940EAC6602026E0FB0615C4E9F6
:103D40000015002400250849C1E90023074BC3E9F9
:103D50000045EFF3118186F31288BFF36F8F70BCBB
:103D600001F08ABE70080020580800206808002072
:103D700008B500220121E420FEF702FF164A0020C8
:103D8000D2F8183723F44033C2F8183700F06AFD30
:103D9000002820DB0120114900F0F0FD00281ADB8B
:103DA00000F03AFD0E4B20F01F00C3E900010D4B5F
:103DB0000022C3E900014FF0FF304FF0FF310A4B02
:103DC000C3E90001094B0A49187A00F035FD672262
:103DD0000020084B1A6008BD00200E500802002089
:103DE0007008002050080020580800200002002021
:103DF000253D0000700C002008B500F00DFD064ABE
:103E0000D2E90032C01A054B61EB0201C3E900019F
:103E1000400940EAC16008BD700800206808002021
:103E2000F7B5224B0146224F187A224BD7E90056AC
:103E3000D3E900239E4208BF954211D1B1F1806FB2
:103E40000ED24901012938BF012101224D1946F145
:103E50000006C7E9005603B0BDE8F04000F014BE0C
:103E6000154BDFF858C0D3E90043DCE9002CA41857
:103E700043EB0C0C4FF0200E22466346C1FB0E2391
:103E8000954276EB0301C7E900230DD2291B66EBAF
:103E90000C04C82974F10004B4BF01210021009171
:103EA00000F0BCFD03B0F0BD0021F8E700020020E7
:103EB00060080020580800207008002068080020D2
:103EC000064BD3F840231C2A05D1D3F84403431EE4
:103ED0005842584170470020704700BF00C0FF00A3
:103EE00003689A070CD50368DB070DD50922074B39
:103EF000C3F80C250F22C3F8042501221A60FEE73F
:103F0000034B0360EF3B0360704700BF008010501D
:103F1000F000FA5008B50123454A4648C2F8003877
:103F2000454AD2F840231C2A04BF444AC2F80C3444
:103F3000FFF7D6FF0830FFF7D3FF0830FFF7D0FFB9
:103F40000830FFF7CDFF00F5F470FFF7C9FF3C4ADA
:103F5000D2F88C3043F44063C2F88C300022D30096
:103F600003F57F0303F54043D3F8001401310AD071
:103F7000D3F8001439B1D3F800140132D3F8043463
:103F8000402A0B60EBD12A4BD3F84024002A4BD0B7
:103F9000FFF796FF48B1284BD3F83423294B9A42B8
:103FA0009EBF234B284AC3F84026FFF789FF18B16C
:103FB000264B274AC3F8AC27FFF782FF48B13422CB
:103FC0001B4BC3F82426D3F83C2622F40022C3F866
:103FD0003C26204BD3F80026D20744BF6FF00102E5
:103FE000C3F800261C4BD3F8182522F00302C3F8AF
:103FF0001825D3F8182542F00302C3F81825104AF3
:10400000D2F88C1041F44061C2F88C10D2F88810BC
:1040100041F47001C2F88810BFF34F8FBFF36F8F68
:104020000022C3F8A02508BDC822C3F84024AFE78A
:104030000000125000C50D5000C0FF0000300550B8
:1040400000ED00E0001D0A1840E0A91E00A0085085
:1040500078000A0400E0105000B00450014B1B68C7
:10406000184700BF740C002010B50C4C237993B98D
:10407000012323710A4B0028206018BF184600F066
:10408000F3F850B923680748002B08BF1846BDE86D
:10409000104000F035B86FF0770010BD740C0020B0
:1040A0005D4000009F99000008B5074B1B6853B1A5
:1040B00040F20510FEF756FD28B9BDE8084040F271
:1040C0000510FEF72DBD08BD740C002038B5042383
:1040D0000A4C42F21075C4F80833012363610023CF
:1040E000C4F80831D4F80831D4F84C34DB0304D5D3
:1040F000012005F01FFC013DF6D138BD00E0105055
:10410000064A13793BB9012110601171044A18461F
:10411000C2F8403470476FF0770070477C0C002085
:1041200000E0105010B51D4B1D4CD3F84C14D3F8C3
:104130004C2411F4803F19D002F00302012A01D06F
:104140008AB90022154BC3F840240022C3F8082185
:10415000D3F8082101221A6122688AB9D3F808210C
:10416000002AFBD014E0FFF7B1FFEAE7D3F84824B8
:10417000D107E6D5D3F850249207F4D422681AB1B7
:104180000422C3F8042310BDD3F80821002AFBD071
:104190000022C3F80821D3F80831F4E700E01050FA
:1041A0007C0C0020F8B50125184C194ED4F80C33BE
:1041B00003F00C0303B9F8BDB3FA83F30027C3F18E
:1041C0001F039A0002F5807292B202F1A04202F53A
:1041D0008712176005FA03F1022B1268D8B2C4F8EF
:1041E000081310D1D4F84C34D4F84C349B070AD1BE
:1041F0000423C4F84054C4F804332561D4F80C33C4
:1042000003F00C03D6E733689847F7E700E0105057
:104210007C0C0020712238B5104B0021C3F8082314
:10422000012242F210745A60C3F80011D3F8001151
:104230000B490A4DD1F840131C2908BFDA60D5F8A4
:104240000C3413F4803305D0012005F073FB013CDE
:10425000F5D138BD034A5371FBE700BF00E01050B1
:1042600000C0FF00840C0020054B0246187918B9E5
:104270001A6001221A7170476FF07700704700BF13
:10428000840C00200022164BC3F81021D3F8101123
:10429000C3F81821D3F81811C3F81421D3F8141156
:1042A0001049D1F840131C2904BF01219960C3F8BB
:1042B0000021D3F8002101221A600B4A126852B97A
:1042C000074BD3F80021002AFBD00022C3F80021BD
:1042D000D3F8003170477122C3F80423704700BF40
:1042E00000E0105000C0FF00840C0020F8B501264B
:1042F000194C1A4DD4F80C3303F0710303B9F8BD0F
:10430000B3FA83F30021C3F11F039A0002F5807210
:1043100092B202F1A04202F58712116006FA03F789
:10432000042B1268D8B2C4F8087308D0062B10D03A
:104330002B689847D4F80C3303F07103DEE70223AF
:104340006B71C4F81411D4F814312023C4F8043369
:10435000EEE76971ECE700BF00E01050840C00202C
:10436000036803F01F025F2B02604FEA53129ABFEB
:10437000024B53F822000020704700BFECBA000047
:10438000034A4309D35C00F01F001844C0B27047D1
:104390005CCB0000F0B50646002487B0114F0191B8
:1043A00017F8012B06AB03EBD20313F8143C02F011
:1043B0000702D34013F0010306D10134032CEFD1DF
:1043C0000023184607B0F0BD074A03AD07CA85E8C9
:1043D000070055F824100A6A46F824200A62002AC9
:1043E000EBD0EEE76CCB000000B50000F7B504465B
:1043F0000846FFF7C5FF04EB4006B38A0D46DB070E
:104400002AD5204605F0CFFB2946204605F03CFB87
:1044100050B1204605F04EFB0023276807EB8000D3
:10442000C0F81035C0F810352946204605F06BFB62
:10443000002101A8B1820195FFF792FF019B00EBDB
:104440008300D0F88020064B134043F00203C0F8ED
:104450008030084603B0F0BD6FF01500FAE700BFEA
:10446000F0F0FCFF2DE9F043044685B00846154600
:104470001F46FFF785FF0E46804625B3204605F010
:104480000EFB18B9204605F0FFFA18BB04EB4809EB
:10449000B9F8143003F01C0313B16B78012B19D059
:1044A00001238DF80F3000233046CDE900536A1CFC
:1044B000AB1C0DF10F0105F08FFAB9F8143043F081
:1044C0000303A9F81430002F3ED03146204605F0F2
:1044D000E6FA20B96FF0150005B0BDE8F0830022C0
:1044E000397823684FEA810C03EB8103C3F8102568
:1044F000C3F8102504EB4802938A23F4604323F0A9
:10450000200393827D78FDB12468B8786444D4F8A0
:1045100010750E4B2D043B40C4F8103541F6F07376
:1045200005F4403503EA06130005D4F810752B4353
:1045300000F4801003433B43C4F81035938A43EAE8
:10454000413343F0200393820020C5E70FE0ECFFE6
:1045500070B590F87440054690F8756044BB4622EB
:104560002146143006F097F82146134A2B6852F87A
:1045700036608E4212D1002440F20D10C3F844413F
:10458000D3F844210D4A934208BFDB20FEF7C8FA56
:104590000123204685F874302B6670BDCAB29200A4
:1045A00002F58070442A04BF1C501A580131E0E71C
:1045B0006FF07700F1E700BFF8BA000000A00D50DF
:1045C00090F87500024B03EB800005F0CFB900BFF7
:1045D0001002002010B5064B90F875000C4603EB56
:1045E000800005F0A9F90028A4BF2070002010BDAC
:1045F000100200202DE9F04F804658F804BB90F8D7
:104600007540DBF814136A4BC9B253F834200746DF
:104610008BB0584641F4003105F09EFA82030546FE
:1046200039D50023CDE907330993614BE60003EB4D
:10463000C404636807A819460093FFF7ABFE331D57
:1046400003934FF0000A5B4B0DF11C090293029A91
:10465000574912F8013B0292039A02EBD3028A5C9B
:1046600003F0070322FA03F3DB071AD40AF1010A65
:10467000BAF1030F09F10409E9D14FF40031002226
:10468000584605F069FA009907A8FFF783FE00284D
:10469000D7D125F400350124002D73D10BB0BDE82E
:1046A000F08F454B53440493D9F80060002EDDD0C1
:1046B00096FAA6F6B6FA86F6049B1C7846EA4414E7
:1046C0002046FFF75DFE07EB4000818AF208C1F348
:1046D000820305930193012319F8020006F00706EF
:1046E00003FA06F620EA060009F8020006A8069476
:1046F000FFF736FE069A11F0100F02F1200250F873
:104700002260059BC6F3014623D04046019A21460C
:1047100005F0DAF906A80694FFF722FE069BF6B22A
:10472000203350F82330C3F301439E4207D10021C8
:10473000204605F09AF93146204605F096F906A87C
:104740000694FFF70DFE0122069B02FA03F30362B3
:10475000AAE7022E14BF022103212046059305F08B
:1047600084F9059B032B03D0022E07D1012BE6D140
:1047700021464046019A05F0A7F9E0E7032EDED175
:10478000022BF4E795FAA5F3B3FA83F304FA03F2E4
:1047900025EA020503F5A2725BF8222007EB43032A
:1047A0004046B3F86410C2F3014205F08DF973E797
:1047B000F8BA00006CCB00006CCB00000123034A68
:1047C00003FA00F093680343936070476000002091
:1047D00073B504460191EFF31186202383F3128809
:1047E000BFF36F8F0B4D019B6A6801A813400193C3
:1047F00005F0A2F8002807DB01226B68824023EA5B
:1048000002036B602070002086F31188BFF36F8F66
:1048100002B070BD600000204FF0FF326FF04043E7
:1048200030B5044CD4E90001824273EB0105F9D3A1
:1048300030BD00BF40270E5030B50C25074B1C186B
:1048400094F8544005FB0433C3E90312187501239F
:10485000034A8340C2F8243330BD00BF600000200B
:1048600000200E50F8B53E4C2278002A72D13D4B04
:10487000D3F8101521F00201C3F81015D3F8101564
:1048800041F00101C3F810150521C3F8A416042155
:10489000C3F8AC160723672101F001000244013B75
:1048A000D2B24FEA5101F7D1052A56D119464FF03D
:1048B000010C2B4E00256720CFB204E00CFA02F267
:1048C00020EA0200013590FAA0F25FFA85FEBE45AB
:1048D000B2FA82F2F2D3013132750529224482F80C
:1048E000547006F10C06E5D1012100251E489A08F6
:1048F00001FA02F212F0670F18BF1D500433302B7B
:10490000F5D1E420FEF70CF9164B1849D3F8102521
:1049100003F5C07322F00202C3F8902340F6FF7241
:10492000C3F8A82100221A60A3F5807004338B42DB
:104930000260F8D101250B4B0D4A1D660D4B5D2021
:104940001B68B3FBF2F358430B4B2B4398470020F3
:104950002570F8BD6FF07700FBE76FF08B00F8E78C
:104960006000002000200E5000210E50B0210E509B
:1049700040420F000C02002020B5000038B5244B47
:104980000D46D3F8102594073CD4D3F8102542F0F7
:104990000202C3F81025C0B1D3F8482712F0010273
:1049A00002BFD3F8481741F00101C3F84817184B6C
:1049B000D3F84017D3F844174800F9D42AB9D3F8EC
:1049C000482722F00102C3F84827124B124A1B68FD
:1049D000B3FBF2F30E4A03EB4313B3B1D2F8401723
:1049E000D2F8441749000BD44FF0FF312846FFF7A7
:1049F000EFFE044610B92878FFF7E0FE204638BDE8
:104A0000013BEAE76FF07704F8E76FF07304F5E72E
:104A100000200E500C02002040420F0070B51E46D0
:104A20001546174A9DF81010131893F854300C339C
:104A300002EBC30442F833506660C6F3130204016C
:104A4000A1B104F1A04404F56224C4F82055C4F8CF
:104A500024250C4C80000444236833B1FFF7DCFEAE
:104A6000A842B14101D20023236070BD04F1A043EC
:104A700003F56223C3F82055C3F82425F5E700BFEA
:104A80006000002000210E50F0B50E4D2B1893F859
:104A9000543000010C3355F8334005EBC3077E68F2
:104AA000641800F1A04021F0004146F1000641EAFF
:104AB000C27100F5622045F833407E60C0F82815C9
:104AC000F0BD00BF60000020F7B5284B284CD3F89C
:104AD0002C6304F188070EB903B0F0BD96FAA6F076
:104AE0000123B0FA80F08340DA43224926EA030624
:104AF000231893F85450830019440C2303FB0543F7
:104B0000DB6873B3D7E8EF3F03EA020CC7E8EECFE8
:104B1000BEF1000FF6D1C340DB0719D5020102F147
:104B2000A04202F56222D2F82435D2F82025D1F82D
:104B300000C0BCF1000FCED04FF0000CC1F800C097
:104B40000C2101FB054529690091E9688847C2E706
:104B500005F10C0304EBC30C54F83320DCF80430EB
:104B6000E5E70A68002AB6D00B60B4E700200E50D3
:104B70006000002000210E50044B40EA0120C3F8E1
:104B80000005D3F80024D207FBD5704700B00450CD
:104B900010B50446FDF7D8F803480121034A04F094
:104BA00069FB204605F06FF9BCB4000041CA000063
:104BB0002DE9F84304460D4600AFEFF3118820239A
:104BC00083F31288BFF36F8F04282A4A98BF2A4BB9
:104BD000E9468AB09668117C98BF53F820306A463F
:104BE00088BF264BCDE9073140F201332448ADF8A8
:104BF0002430244BCDE9050442F8103F00234FF444
:104C000031512148FDF76EF9CD4645B1EB69C3F34B
:104C1000080323B101211D4A1B4804F02BFB2EB1D0
:104C2000304605F060F908B1037803B91848E94641
:104C30008AB06A46174B0790CDE9053640F201333A
:104C4000ADF82030144B42F8103F00234FF41151BF
:104C50000D48FDF747F92946CD462046FFF798FF56
:104C600088F31188BFF36F8F3046FEF759F8BD46C1
:104C7000BDE8F8838C0C002008BB000050CA00007F
:104C800066CA000005000001BCB400008ECA000026
:104C90005ECA0000AFCA00000400000138B50A4B2C
:104CA00053F82040013053F82050A54200D838BDB9
:104CB000606830B1037EDB0701D405F0C1F8083429
:104CC000F3E723689847FAE71CBB0000012270B5A0
:104CD000294B86B003201A70FFF7E0FF05F075FA44
:104CE0000420FFF7DBFF254C254D2646AE4204F19C
:104CF00030040FD300F01AFC204CAC4226D300F055
:104D000029FCFBF78DFE1F4A938923F00103938151
:104D100006B070BD54F80C3C059354F8103C049355
:104D200054F8143C039354F8183C029354F81C3C78
:104D3000019354F8203C009354E90A2354E90C01F0
:104D400000F014FA54F8303C5E65CEE7D4E90A234B
:104D5000B3F1FF3F08BFB2F1FF3F05D052EA0301B4
:104D6000206803D105F07FF93034C6E706491830D2
:104D700000F0F2FDF8E700BF3E900020F8B300001D
:104D8000F8B3000040090020C39F0000C82370B59D
:104D9000134E012203FB0066002386B0CDE90423F5
:104DA0000F220193CDE9023218234FF4A0720D4D6A
:104DB0000D4903FB0055044602FB00110B4B304626
:104DC000009500F0D3F9337C2C7423F00403337482
:104DD000074B013403EBC423EE606B6006B070BD7B
:104DE000780800208C0C0020409B0020979E00003B
:104DF000409300207FB50020FFF750FF294B03F5BB
:104E0000006282F3088883F30A880024E023264D99
:104E100085F82230EC772C766C76AC7685F82040DD
:104E20006B6A43F4E0236B6285F82340FDF7E4FDF1
:104E3000FDF760FF4FF0FF33AB62EB62FEF778F9EE
:104E4000FDF7FAFFFCF7DCFE184800F0F9F9012045
:104E5000FFF724FF0220164DFFF720FF00F0A4FB10
:104E6000144B4FF480629D61134B14490593012349
:104E70002846CDE90343CDE90144114B009400F0ED
:104E800075F906462B7C284623F004032B7405F0A5
:104E900064F82046FFF77AFF31462846084AFDF7B6
:104EA000FDFE00BF4093002000ED00E0080A002056
:104EB000400900208C0C002011CB0000809C0020B9
:104EC000CD4C00002DE9F341044617461E46EFF392
:104ED0001188202383F31288BFF36F8F304BC26891
:104EE0009B6872B18068984217D057EA060216D1C3
:104EF00088F31188BFF36F8F6FF00F0002B0BDE829
:104F0000F08193F90E1001322161C4E9023288F375
:104F10001188BFF36F8F0020F0E72169F3E793F961
:104F20000E1090F90E30994230DA9942A8BF194616
:104F300004F0BCFF054622464146CDE900761948FB
:104F400000F066FA0028E6D0EFF31186202383F301
:104F50001288BFF36F8FA068D0B1236821699C428B
:104F60000AD04BB193F90E309942A8BF19466FF0A1
:104F70007F039942B8BF194604F098FF40B131460B
:104F8000084805F044F86FF00A00B7E70025D2E7BB
:104F9000002DF4D186F31188BFF36F8FF3E700BFC4
:104FA0008C0C00203F900020F8B583680546002B4C
:104FB00040D0234A926893423FD1C368012B03D962
:104FC000013BC3600020F8BDEFF31187202383F37A
:104FD0001288BFF36F8F0169806804F067FF2C6847
:104FE000A54207D10023C5E9023387F31188BFF337
:104FF0006F8FE7E7002CF5D0D4E90032002613606C
:105000005A60237CC4E9006623F002032374A6607F
:1050100004F1180005F092F8AC6094F90E302046C7
:105020002B61C4F8806004F098FF3946054804F00D
:10503000EEFFC7E76FF01500C5E74FF0FF30C2E79E
:105040008C0C00203F90002070B5EFF311862023D8
:1050500083F31288BFF36F8F0468A0421BD0D4B1D2
:10506000D4E90032002513605A60237CC4E900555E
:1050700023F002032374A56004F1180005F05EF824
:105080002046C4F8805004F068FF3146BDE8704007
:10509000064804F0BCBFD0E902329A4218BF01337F
:1050A000836086F31188BFF36F8F70BD3F9000203F
:1050B00013B5EFF31181202484F31288BFF36F8FAF
:1050C000846844B1013C846081F31188BFF36F8F21
:1050D000002002B010BD52EA030406D181F311880A
:1050E000BFF36F8F6FF00F00F3E7CDE900230246A7
:1050F000014800F08DF9ECE73F90002070B50546BF
:10510000EFF31186202383F31288BFF36F8F002300
:105110002C68A54219D0C4B1D4E9003213605A609A
:105120000023227CC4E9003322F002022274A3602F
:1051300004F1180005F002F86FF00A032046C4F8E5
:10514000803004F00AFF0123E2E70022AA6023B9BD
:1051500086F31188BFF36F8F70BD3146BDE8704094
:10516000014804F054BF00BF3F9000202DE9F043F8
:10517000984685B000F15803C0E91633109B00260D
:1051800083810423073222F0070503740F9B01EB90
:1051900005090F4683734946C0E906668660C673F3
:1051A0000446FDF7F5F90E9B073020F00700206755
:1051B000C4E91A7502930D9BA9EB000901930C9B9E
:1051C0004A460093394643462046FDF723FD054BEA
:1051D00066659B6803B15B6F4846636705B0BDE8D1
:1051E000F08300BF8C0C0020F0B5002587B005953A
:1051F000109DDDE9127604950F9D044603950E9DE2
:1052000002950D9D01950C9D0095FFF7AFFFB6F13E
:10521000FF3F08BFB7F1FF3F05D056EA070305D1AE
:10522000204604F020FF204607B0F0BD3A46334642
:1052300004F11800014900F08FFBF4E7C39F000060
:105240000123037483810023C0E91A334367014BB0
:10525000986070478C0C00206FF00A01094A93682F
:10526000C3F880100849D8674B6843F080534B60FF
:10527000002383F31188BFF36F8F9368D3F8800006
:10528000704700BF8C0C002000ED00E070B590F975
:105290001020037C002A2FDBD9062DD11A4C63F095
:1052A0007F032246037452F81C3F216A934207D1C0
:1052B000C0E90021086020620FE09942F8D01B6825
:1052C000002BF5D093F90E6090F90E50AE42F4DD4C
:1052D0005968C0E9003108605860E569954200D01E
:1052E00005B9E568A3681A7CD20606D1DA897F2A57
:1052F00003D9AA690AB9A36170BDAB4202D028469E
:1053000000F0ACFAA561F7E78C0C002038B590F9F5
:1053100010200146002A037C04DA03F07F030374A3
:1053200004F0E3FD0D4D2A4652F81C4FAB68944241
:1053300000D004B9EC688B4207D01A7CD20604D1A5
:10534000DA897F2A01D9A2692AB1A34202D0204674
:1053500000F084FA2346AB6138BD00BF8C0C0020FE
:10536000B3F1FF3F08BFB2F1FF3F03D0024918304D
:1053700000F0F2BA704700BFC39F0000034648B96F
:10538000EFF3058232B9064A91699268914201D0E1
:10539000FFF762BF83F31188BFF36F8F704700BFC1
:1053A0008C0C002038B5184CA168206A0B6881422B
:1053B00014BF1A46002249680B605960A368216A2D
:1053C0002AB9124AC3E900210B6023620AE092F96C
:1053D0000E5093F90E00854212DD5168C3E9002199
:1053E0000B605360E569094B9D4200D005B9E56843
:1053F000A3689D4202D0284600F030FAA56138BD6E
:105400008A42DED01268DBE78C0C0020A80C00205A
:10541000F8B5DDE906670D4B0C46986811460C4A55
:105420001060EFF31182202282F31288BFF36F8F96
:105430009D68284604F06BFD284632463B46FFF740
:105440008FFF2046BDE8F840FFF706BF8C0C002018
:10545000B00C0020F8B50446EFF31187202383F346
:105460001288BFF36F8F037C49B203F01F02002A3A
:105470000CBF0126002635D103F07F032A4D0374AB
:1054800004F033FD2A46037C817363F07F030374C9
:1054900052F81C3F286A934207D1C4E900200460F7
:1054A0002C620DE09842F8D01B68002BF5D093F9E0
:1054B0000EC08C45F6DD5968C4E900310C605C60B3
:1054C000EC69944200D004B9EC68AB689C4202D00D
:1054D000204600F0C3F9AC6187F31188BFF36F8FEA
:1054E0003046F8BD9B071CD5856804F0FEFC81732F
:1054F0002B689D4209D16B68C4E900531C606C6045
:10550000EAE76A689A42F6D01B68002BF3D093F959
:105510000E208A42F5DD5A68C4E9003214605C60EE
:10552000DAE78173D8E700BF8C0C0020EFF311811C
:10553000202383F31288BFF36F8F054B9A68D37BC8
:10554000013BD37381F31188BFF36F8F704700BFA6
:105550008C0C002070B5EFF31186202383F31288A2
:10556000BFF36F8F0F4DAB68DA7B0132DA732A46D7
:1055700052F81C4F944200D004B9EC681A7CD20651
:1055800004D1DA897F2A01D9A2692AB19C4202D0CA
:10559000204600F063F92346AB613046BDE8704019
:1055A000FFF7ECBE8C0C0020024B03F11C02C3E998
:1055B000072270478C0C002070B5EFF31186202372
:1055C00083F31288BFF36F8F1A4CA168206A0B68AF
:1055D000814214BF1A46002249680B605960A368D3
:1055E000216A2AB9144AC3E900210B6023620AE048
:1055F00092F90E5093F90E00854216DD5168C3E909
:1056000000210B605360E5690B4B9D4200D005B94A
:10561000E568A3689D4202D0284600F01FF9A56105
:105620003046BDE87040FFF717BE8A42DAD01268F4
:10563000D7E700BF8C0C0020A80C0020F8B550EA7A
:10564000010306460C4603D1FFF7B6FF0020F8BD64
:10565000EFF31187202383F31288BFF36F8F124D6E
:10566000124BA8681860FFF751FEA868234632461F
:105670000F49183000F070F9AA680446137C3846C8
:1056800043F004031374FFF7E7FDAB68D3E90A2383
:10569000B3F1004F08BF002AD8D104F084FD201ACE
:1056A00020EAE070D3E700BF8C0C0020B00C002093
:1056B000C39F0000014B9868704700BF8C0C00200E
:1056C0002DE9F84304468789EFF31186202383F3FD
:1056D0001288BFF36F8F037C190705D586F31188F5
:1056E000BFF36F8FBDE8F883D90943F008026FD18B
:1056F0000274A36813B1204604F0FFFB04F1180004
:1057000004F01CFDA56D04F15808A84511D04FF018
:10571000000975B1284604F0F0FB05F1180004F00B
:105720000DFD2846C5F88090FFF7B0FDA56DA84592
:10573000EFD1DFF8C480D8F808309C4250D1EFF3A5
:105740000589B9F1000918BF4FF00109D8F81C50BC
:10575000274A954200D00DB9D8F80C50AB4202D080
:10576000284600F07BF82046C8F8185003F05FFE8A
:10577000B9F1000F02D01F48FFF762FDD8F80830DA
:105780009C4230D1EFF305836BBBA289D20711D5C0
:1057900086F31188BFF36F8F83F31188BFF36F8F88
:1057A0000423184602DFEFF31186202383F31288C7
:1057B000BFF36F8F3046FFF74FFDFB0792D50023F5
:1057C00083F31188BFF36F8F0423184602DF89E744
:1057D00003F07F0343F00803037404F086FB88E7BB
:1057E0004FF00009B2E786F31188BFF36F8FE4E74B
:1057F000A80C0020080A00208C0C0020027C034624
:1058000012F01F0210D10A4988420DD009490868D8
:1058100068B1D9897F2909D893F90E20064B1B68F6
:105820009A42B8BF0020704700207047104670476A
:105830007808002018020020B40C00200122044B3C
:10584000C01A044BC0105843034B1A54704700BF92
:10585000D00A0020ABAAAAAA3F90002070B50C4B3A
:105860000C4D1E7CFFF7CAFF182303FB06550446A8
:10587000284604F063FC0022074B9A553CB1621E97
:105880002846BDE870400549D31700F065B870BDE3
:105890008C0C0020D00A00203F9000203D580000D2
:1058A00038B5EFF31185202383F31288BFF36F8F90
:1058B0000F4B104A9C681068A04206D1FFF7CEFF3C
:1058C00085F31188BFF36F8F38BD00211B7C1160F9
:1058D000094AD35C002BF3D02046FFF78FFF002846
:1058E000EED0237CDB0601D1FFF75CFD2046E5E727
:1058F0008C0C0020B00C00203F900020024B186858
:10590000984208BF002070471C020020034B1B6810
:105910000BB9FEF771BA0020704700BFB80C002029
:1059200030B570B10B4B5B6898420AD0036843B145
:10593000D3E90421D0E90445121941EB0501C3E97B
:105940000421D0E9003213605A600023C0E900331B
:1059500030BD00BF1C020020B3F1FF3F08BFB2F111
:10596000FF3F2DE9F84F0446994615461F467AD069
:105970008160EFF31188202383F31288BFF36F8FC8
:10598000B9F1000FDFF8E8A020DBFFF7BFFFDAE98D
:105990000027013549F100092D1849EBE07306464F
:1059A0004FF00109C4E90453AD1843EB0707FFF7B3
:1059B000A5FF0346DFF8BCE0DEF804A0EBB9C4E9BC
:1059C00000EACAF80040CEF8044028E06FF0010376
:1059D000DAE900125B1A4FF0FF3161EB02025B1B48
:1059E00062EB0902012B72F10001BCBF012300220E
:1059F0004FF00009C0E90432D9E7D3E9041CD4E927
:105A000004208A4270EB0C0B24DA891A5A686CEB7A
:105A10000000C3E90410C4E9003214605C60FFF7C1
:105A20006DFF84420ED1114B1B685BB9B9F1000FB9
:105A300002D1FFF76BFF0646304604F068FB0021F9
:105A4000FEF7EEF988F31188BFF36F8F28463946C9
:105A5000BDE8F88F521A60EB0C005345C4E90420EE
:105A6000ADD01B68AAE700252F46EFE7B80C002051
:105A7000E80A00201C0200202DE9F047284F0246CA
:105A800038600D46FFF73AFF4FF000084FF000096D
:105A9000244E4FEAE27ED6E9001350B1D0E9044C1F
:105AA000A2427EEB0C0A19DAA41A6CEB0E0CC0E9C8
:105AB000044C0024521843EB0E032046C6E9002391
:105AC0003C6004F024FB2146FEF7AAF985F3118817
:105AD000BFF36F8FBDE8F047FFF7E2BE611843EBFD
:105AE000E473C0E90489C6E90013FFF719FF012236
:105AF0004FF00043C0E9042385F31188BFF36F8F93
:105B000083689847EFF31185202383F31288BFF34E
:105B10006F8F3A68121B3A60FFF7F0FEB9E700BFDB
:105B2000B80C0020E80A002010B5EFF31184202300
:105B300083F31288BFF36F8FFFF7E8FE0346054A31
:105B4000D2E90001181841EBE37184F31188BFF327
:105B50006F8F10BDE80A0020F8B50446EFF31187F7
:105B6000202383F31288BFF36F8FD0E90423B3F1AE
:105B7000004F08BF012A04D087F31188BFF36F8F4D
:105B8000F8BDD0E90A566A1C46F10003022A73F1F7
:105B9000000334D3013D46F1FF36002EBCBF002583
:105BA0002E4604F004FB013041F10001401946EBA0
:105BB0000101012871F1000148DB04F0F8FA6FF0EF
:105BC0000203013041F10001401946EB010183421B
:105BD0006FF000438B413EDB04F0E9FA013041F104
:105BE00000016FF00102401946EB01034FF0FF3155
:105BF000121A61EB030320461949FFF7ADFE236B30
:105C000001332363236A63B187F31188BFF36F8F76
:105C100020469847EFF31187202383F31288BFF3C0
:105C20006F8F54F8185FA542A6D0002DA4D0284647
:105C300004F0A2F90023C5F8803087F31188BFF380
:105C40006F8F2846BDE8F84004F087B96FF0010275
:105C50004FF0FF33CFE700224FF00043CBE700BF08
:105C6000595B00002DE9F04105461C4690461F4651
:105C7000EFF31186202383F31288BFF36F8FB4F103
:105C8000FF3F08BFB2F1FF3F05D186F31188BFF394
:105C90006F8FBDE8F081002C09DB012A74F100034D
:105CA000BCBF0122002412F1FF3844F1FF3728461F
:105CB00004F044FADDE90623C5E90A23002342463D
:105CC0002B6328463B460249FFF746FEDDE700BF4F
:105CD000595B000070B50546EFF31184202686F36A
:105CE0001288BFF36F8F04F029FA20B184F3118872
:105CF000BFF36F8F70BD6B6A63B184F31188BFF31C
:105D00006F8F28466B6A9847EFF3118486F31288E9
:105D1000BFF36F8F05F1180004F063F90028E5D098
:105D200004F01BF92146BDE87040014804F06FB94A
:105D30004090002038B50C4C0C4804F076FA657899
:105D40000A4804F078FA0A4804F06FFA022D08D1E4
:105D50002478E31F5C425C41054804F06CFA20465D
:105D600038BD0024F8E700BFBC0C0020240200204E
:105D70003C02002010B51B4C1B4804F056FA237857
:105D8000590744BF03F0FB0323709A0705D500F0C1
:105D9000B1F8237823F002032370134804F04BFA80
:105DA000124804F042FA637813B1114804F03BFA48
:105DB000002304210E48637000F0B6F80B4804F08D
:105DC0003AFA094804F031FA2378DB0705D504F0E4
:105DD00027FA237823F0010323700348BDE810401D
:105DE00004F029BABC0C00203C0200202402002050
:105DF000C00C002070B5FFF79DFF10B100242046B5
:105E000070BD344804F011FA044620B16FF08F04DD
:105E1000FFF7B0FFF3E7304D2B789E0706D400F074
:105E200061F804462B7843F002032B70294804F0F4
:105E300002FA10B1002CE9D0EAE7002CE8D125489D
:105E400004F0F3F904460028E0D12B78D80706D4F3
:105E500004F0E4F904462B7843F001032B701D484D
:105E600004F0E9F90028E5D1002CD1D1194804F05B
:105E7000DCF90028CAD117482E7804F0DCF9002894
:105E8000C4D1164804F0D1F904460028BED16B787D
:105E90003BB9F10705D5124804F0C3F902230446C3
:105EA0006B700E4804F0C7F90028C3D1002CAFD1A5
:105EB000084804F0BAF90028A8D12B7805485A07F9
:105EC0005CBF43F004032B7004F0B5F9002895D0B3
